:100000000C943A010C9459010C9459010C94590127
:100010000C9459010C9459010C9459010C945901F8
:100020000C9459010C9459010C9459010C945901E8
:100030000C9459010C9459010C9459010C945901D8
:100040000C9459010C9459010C9459010C945901C8
:100050000C9459010C9459010C9459010C94982F4B
:100060000C9459010C9459010C9459010C945901A8
:100070000C9459010C9459010C9459010C94590198
:100080000C9459010C9459010C9459010C94590188
:100090000C9459010C945901000000000000005F0D
:1000A00000000003000300143E143E14242A7F2A9B
:1000B000124333086661364955225000050300009B
:1000C000001C2241000041221C0014083E081408B4
:1000D000083E0808005030000008080808080060C2
:1000E00060000020100804023E5149453E00040211
:1000F0007F00426151494622414949361814127F16
:100100001027454545393E494949320101710907E2
:100110003649494936264949493E003636000000ED
:10012000563600000814224100141414141400411F
:1001300022140802015109063E4159555E7E090903
:10014000097E7F494949363E414141227F41414133
:100150003E7F494949417F090909013E4141493AE8
:100160007F0808087F00417F4100304040403F7FCA
:10017000081422417F404040407F020C027F7F02F2
:1001800004087F3E4141413E7F090909061E2121A5
:10019000215E7F09090976264949493201017F011B
:1001A000013F4040403F1F2040201F7F2010207F04
:1001B00041221C224107087008076151494543004C
:1001C0007F41000002040810200000417F0004026B
:1001D0000102044040404040000102040020545409
:1001E00054787F4444443838444444443844444474
:1001F0007F385454541804047E0505085454543C64
:100200007F0804047800447D40002040443D007F86
:100210001028440000417F40007C047804787C086A
:1002200004047838444444387C1414140808141422
:10023000147C007C080404485454542004043F44B3
:10024000443C4040207C1C2040201C3C4030403C32
:1002500044281028440C5050503C4464544C4400F2
:100260000836414100007F0000414136080002018C
:100270000204020011241FBECFEFD0E2DEBFCDBFCB
:1002800012E0A0E0B1E0E0EBF7E700E00BBF02C056
:1002900007900D92A43EB107D9F716E0A4EEB2E0A4
:1002A00001C01D92AD30B107E1F70E94E9060C9440
:1002B000D63B0C9400004F3F59F48091E402882310
:1002C00019F46F5F6093E4028091E402815015C0DD
:1002D000413019F020E030E014C08091E402992709
:1002E00087FD9095262F30E08217930719F48FEF42
:1002F0008093E4028091E4028F5F8093E40221E026
:1003000030E0C90108958617970761F484179507AF
:1003100049F440E050E08217930711F441E050E0C7
:100320009A0102C020E030E0C901089580E091E028
:100330006EE670E04AE050E00E940E2F84E191E00A
:1003400062E670E04EE150E00E940E2F08950F9398
:100350001F93DF93CF9300D0CDB7DEB78CE291E04F
:1003600063E770E04AE050E00E940E2F00D000D01A
:1003700000D0EDB7FEB731968E010F5F1F4FADB7BE
:10038000BEB712961C930E9311978CE391E0938362
:10039000828380918E01992787FD90959583848330
:1003A0000E94FF388DB79EB706960FB6F8949EBF91
:1003B0000FBE8DBFC8016DE970E04AE050E00E94B9
:1003C0000E2F8FE391E062E670E04EE150E00E9474
:1003D0000E2F0F900F90CF91DF911F910F910895E5
:1003E000AF92BF92CF92DF92EF92FF920F931F9343
:1003F000DF93CF93CDB7DEB760970FB6F894DEBF2B
:100400000FBECDBF5A01890190E001967C0135E015
:10041000EE0CFF1C3A95E1F7880F991FE81AF90ACC
:1004200070E06F5F7F4F6B0195E0CC0CDD1C9A95FF
:10043000E1F7660F771FC61AD70AC7014996282F1A
:100440009A838983C701C796482F9C838B83C601F3
:100450004496682F9E838D83C601C29698878F83AA
:100460003A815C817E8198850E94532AC7014A9611
:10047000282F9A87898786E390E0E80EF91E4E2D93
:10048000FC86EB86C6014596682F9E878D8781E3A3
:1004900090E0C80ED91ED88ACF863A855C857E85C5
:1004A0008C2D988985010E94532A60960FB6F89486
:1004B000DEBF0FBECDBFCF91DF911F910F91FF9097
:1004C000EF90DF90CF90BF90AF9008950F931F9360
:1004D00000E00EC0812F602F4FE150E020E030E0BF
:1004E0000E94F0011F5F1730A9F70F5F063011F06F
:1004F00010E0F0CF1F910F910895CF92DF92EF920D
:10050000FF920F931F93CF93DF9380918E018130E1
:1005100029F090EEC92E9FEFD92E03C0C12C88EF91
:10052000D82EA0E0B0E04CC02081318121153105EA
:10053000C9F1AB014F5F5F4FC08DD18D04A115A1F3
:10054000848595852817390769F52C173D0751F5DE
:100550002017310739F5CD0101969C0105E0220FE6
:10056000331F0A95E1F7880F991F281B390B2D5D62
:100570003F4FCA01B5E0880F991FBA95E1F7440FC4
:10058000551F841B950BAB01F5E0440F551FFA95E1
:10059000E1F7660F771F461B570B40565F4F889653
:1005A000B90151C06F5F7F4F3C966430710509F00F
:1005B000BBCF1196A630B10519F4A0E0B0E057C04A
:1005C000FD01EE0FFF1FEB51FD4F60E070E0ACCF7F
:1005D0002081318121153105E1F164817581068128
:1005E0001781828193812817390799F526173707D4
:1005F00081F52017310769F5CA010196AC0135E094
:10060000440F551F3A95E1F7880F991F481B590B66
:10061000485D5F4FBE0105E0660F771F0A95E1F761
:10062000CC0FDD1F6C1B7D0B6D5D7F4F9D01F5E0D9
:10063000220F331FFA95E1F7AA0FBB1F2A1B3B0BB2
:1006400025563F4FCA0186010E94852B21E030E0EC
:10065000D0C04F5F5F4F3C964730510509F0B8CF8F
:100660001196A330B10519F4A0E0B0E0A6C0FD01D9
:10067000EE0FFF1FEB51FD4F40E050E0ED012196E2
:10068000A7CFEA012197208131812115310509F495
:1006900089C0A330B1050CF042C0648D758D02A5F0
:1006A00013A5868597852817390709F07BC026177B
:1006B000370709F077C02017310709F073C09A0196
:1006C000CA0155E0880F991F5A95E1F7220F331F91
:1006D000821B930BB70135E0660F771F3A95E1F760
:1006E000EE0CFF1C6E197F096D5D7F4FAE0105E0BA
:1006F000440F551F0A95E1F7CC0FDD1F4C1B5D0B16
:1007000040565F4F9D01F5E0220F331FFA95E1F748
:10071000AA0FBB1F2A1B3B0B25563F4F41C06489C4
:100720007589068D178D8285938528173907D1F530
:1007300026173707B9F520173107A1F59A01CA0125
:1007400075E0880F991F7A95E1F7220F331F821BFE
:10075000930B9D012F5F3F4FB90155E0660F771F47
:100760005A95E1F7220F331F621B730B6D5D7F4FAC
:10077000AE0105E0440F551F0A95E1F7CC0FDD1FD0
:100780004C1B5D0B40565F4F9D01F5E0220F331F60
:10079000FA95E1F7AA0FBB1F2A1B3B0B29513040EA
:1007A000889651CF4F5F5F4F3C964530510509F019
:1007B00068CF1196A630B10561F0FD01EE0FFF1F65
:1007C000EB51FD4F41E050E07D010894E11CF11C2C
:1007D00058CFE5EEF2E080819181892B19F420E079
:1007E00030E007C03C9683E0E933F807A1F722E048
:1007F00030E0C901DF91CF911F910F91FF90EF90F1
:10080000DF90CF90089590E00196FC0135E0EE0F67
:10081000FF1F3A95E1F7880F991FE81BF90BB8966F
:1008200070E06F5F7F4F9B01B5E0220F331FBA95D9
:10083000E1F7660F771F261B370B2D5D3F4F4130C9
:10084000510529F4CF01B90140E058EF07C042300B
:10085000510549F4CF01B90140EE5FEF2AE030E0E5
:100860000E944A2C0895452B41F4CF01B9014FEF66
:100870005FEF2AE030E00E944A2C0895CF92DF9289
:10088000EF92FF920F931F93CF93DF937C01EC01C4
:10089000CC0FDD1FC80FD91FCC0FDD1FCC0FDD1F04
:1008A000CB51DD4F00E010E06FEF7FEFB8ECCB2EC7
:1008B000D12C88819981892B99F48FEF6F3F78072C
:1008C00029F08E2D40E050E00E94030440918E01FB
:1008D000552747FD50958E2D602F0E940304B801C7
:1008E00084EF91E0F6013197F1F70197D9F70F5FA7
:1008F0001F4F229606301105E1F6F701EE0FFF1F9C
:10090000EE0DFF1DEE0FFF1FE60FF71FEE0FFF1F8F
:10091000EB51FD4F80918E01992787FD9095918332
:10092000808380E090E0DF91CF911F910F91FF9045
:10093000EF90DF90CF900895CF92DF92EF92FF92E9
:100940000F931F93DF93CF93CDB7DEB760970FB6AA
:10095000F894DEBF0FBECDBFE82E0091E402809177
:100960008F01813011F011E001C016E080E0612FAD
:100970004E2D0E945B01982F80918F01813009F0EC
:100980005CC0292F06C0822F612F4E2D0E945B0173
:10099000282F8091E402992787FD9095FC01EE0FA6
:1009A000FF1FE80FF91FEE0FFF1FEE0FFF1FEB51A8
:1009B000FD4F80819181892B31F7213009F08EC064
:1009C000802F60E04FE150E020E030E00E94F00135
:1009D0008091E40260E040E050E02FE130E00E94CE
:1009E000F001802F992787FD9095FC01EE0FFF1FE6
:1009F000E80FF91FEE0FFF1FEE0FFF1FEB51FD4F2A
:100A000040815181802F60E00E9403048091E402C4
:100A1000282F332727FD3095F901EE0FFF1FE20F36
:100A2000F31FEE0FFF1FEE0FFF1FEB51FD4F408135
:100A3000518160E00E94030451C0802F992787FDF7
:100A40009095019620EAC22ED12C9C012C9DC001CC
:100A50002D9D900D3C9D900D1124AC0147565040AA
:100A6000242F5A834983C997482F9C838B8385E21F
:100A7000E82EF12C6E2DFE82ED82F886EF823A810F
:100A80005C817E818E2D988500E010E00E94532AC3
:100A90008091E402992787FD909501969C012C9DF9
:100AA000C0012D9D900D3C9D900D1124AC01475629
:100AB0005040242F5A874987C997482F9C878B8796
:100AC0006E2DFE86ED86F88AEF863A855C857E85FA
:100AD0008E2D98890FEF1FEF0E94532A60960FB654
:100AE000F894DEBF0FBECDBFCF91DF911F910F9164
:100AF000FF90EF90DF90CF900895EF92FF920F93C9
:100B00001F93CF93DF930E9466028091E40260E01E
:100B100040E050E02FE130E00E94F00100E010E002
:100B200014C088819981892B31F48F2D6E2D40E07E
:100B300050E00E940304F3942C9687E0F81689F79E
:100B40000F5F1F4F0630110541F0E02EE801CC0F7A
:100B5000DD1FCB51DD4FFF24E4CFDF91CF911F91FB
:100B60000F91FF90EF9008950F931F93DF93CF9312
:100B7000CDB7DEB72A970FB6F894DEBF0FBECDBF54
:100B8000F89480918F01813029F049E353E020E00F
:100B900030E0E0C08091E402992787FD90950E94A3
:100BA0003E040E947D02019709F051C000D000D0A0
:100BB00000D0EDB7FEB731968E010F5F1F4FADB776
:100BC000BEB712961C930E9311978CE391E093831A
:100BD000828380918E01992787FD909595838483E8
:100BE0000E94FF388DB79EB706960FB6F8949EBF49
:100BF0000FBE8DBF0E94960185E591E06BE770E026
:100C00004AE050E00E940E2FC80161EA70E04AE01D
:100C100050E00E940E2F83E691E069E370E04BE123
:100C200050E00E940E2F8CE691E069ED70E04BE100
:100C300050E00E940E2F1092E402DE011396E8E9C4
:100C4000F1E088E001900D928150E1F729C00E9407
:100C50007D02029799F50E94960185E791E06DE784
:100C600070E04AE050E00E940E2F83E691E069E3D5
:100C700070E04BE150E00E940E2F8CE691E069EDB0
:100C800070E04BE150E00E940E2F1092E402DE0172
:100C90001396E0E9F1E088E001900D928150E1F7D0
:100CA0002B813C814D815E816F81788589859A8514
:100CB0000FEF1FEF0E94532A10928F0180918E0137
:100CC000813011F482E001C081E080938E01809137
:100CD0008F01813009F051C000D000D000D0EDB7B5
:100CE000FEB731968E010F5F1F4FADB7BEB712969C
:100CF0001C930E9311978CE391E0938382838091F0
:100D00008E01992787FD9095958384830E94FF38F3
:100D10008DB79EB706960FB6F8949EBF0FBE8DBFD7
:100D2000C8016DE970E04AE050E00E940E2F25C036
:100D300080819181892B11F0118210823C96E417F9
:100D4000F507B1F72F5F3F4FAF014E5F5F4F263082
:100D5000310531F0F901EE0FFF1FEB51FD4FE8CFE8
:100D60000E94622D0E947D051092E40281E0809332
:100D70008E0180938F010E94A70178942A960FB666
:100D8000F894DEBF0FBECDBFCF91DF911F910F91C1
:100D900008950F931F93182F092F88E00E942F3179
:100DA000882319F081E00E949C0480E20E942F3188
:100DB000882319F08FEF0E949C0480E80E942F3155
:100DC000882311F00E94B405812F902F1F910F915D
:100DD00008950E94892F1092800510927F058FEF51
:100DE0009FEF90937E0580937D050E94622D89EC94
:100DF00096E044E650E060E070E021E030E00E94E0
:100E000079300E947D050E94A7017894FFCF0F934F
:100E10001F93CF93DF938C01EB01BA0120E030E008
:100E20000EC0F801E20FF31FDE01A20FB31F8D9178
:100E30009C9191838083425050402E5F3F4F4230BF
:100E4000510578F7CB018E7FDE01A80FB91FF8019D
:100E5000E80FF91F60FF02C08C918083DF91CF9172
:100E60001F910F910895EF92FF920F931F93CF93CD
:100E7000DF93EC017A018B018EEF9FEFAFEFBFEFB5
:100E8000E80EF91E0A1F1B1F8A899B89AC89BD8940
:100E90000297A109B109E816F9060A071B0728F00D
:100EA00020E030E040E050E012C02A8130E040E035
:100EB00050E0C801B7010E9460389B01AC018EA1CF
:100EC0009FA1A8A5B9A5280F391F4A1F5B1FB9010B
:100ED000CA01DF91CF911F910F91FF90EF9008957C
:100EE000CF93DF93FC019B01AB01475F5F4F86858A
:100EF0009785A089B1890097A105B10571F1C289D3
:100F0000D38980E090E06EE2FE01E80FF91FE081F6
:100F10000196E03261F0E53009F4E5EE89309105A3
:100F200019F4DA016D93AD01DA01ED93AD018B3067
:100F3000910551F78B85F90180878C8D9D8DAE8D44
:100F4000BF8D80839183A283B383888D998D958390
:100F500084838E899F8997838683DA011C92DF912F
:100F6000CF910895CF93DF93EC01A881B9811097B9
:100F700019F1FD0101C031968081813218F08A3368
:100F8000D1F705C08A3319F020E030E017C08C910A
:100F9000282F332727FD3095205330402A30310544
:100FA00058F41196AE17BF0739F42115310521F415
:100FB0003196F983E88302C02FEF3FEFC901DF913B
:100FC000CF910895FC010097E1F0A081B1811097C5
:100FD000C1F08C918823A9F016962D913C9117971A
:100FE000828193812817390761F411968C910E94B0
:100FF0005D2780FD03C020E030E005C023E030E045
:1010000002C029E030E0C9010895CF93DF93EC01DD
:101010000E94E2079C01009711F419821882C9010D
:10102000DF91CF9108958F929F92AF92BF92CF920E
:10103000DF92EF92FF920F931F93CF93DF93EC0118
:101040008C81882309F445C0CAA4DBA4ECA4FDA4C8
:101050008EE2882E912C8C0E9D1E8981B401A701F1
:10106000960101E010E00E947428892B19F021E01C
:1010700030E031C01C828E8D9F8DA8A1B9A1A7013F
:101080009601281B390B4A0B5B0B8E899F89A88D13
:10109000B98D281739074A075B07D8F48B81A82E2A
:1010A000BB2413C08E899F89A88DB98DC80ED91E07
:1010B000EA1EFB1E8981B401A701960101E010E040
:1010C0000E9474280894A108B10882E0A816B1040F
:1010D00048F720E030E0C901DF91CF911F910F91D7
:1010E000FF90EF90DF90CF90BF90AF909F908F9048
:1010F0000895AF92BF92CF92DF92EF92FF920F933B
:101100001F93CF93DF935C016A017B01FC0182A5F1
:1011100093A5A4A5B5A5481759076A077B0719F435
:10112000C0E0D0E01EC0C5010E941308EC0100978A
:10113000C1F4B501625D7F4FF5018181A701960180
:1011400001E010E00E942428892B31F0CC24CA94BD
:10115000DC2C7601C1E0D0E0F501C2A6D3A6E4A65E
:10116000F5A6CE01DF91CF911F910F91FF90EF90E7
:10117000DF90CF90BF90AF900895CF93DF93EC01B5
:101180001C828FEF9FEFAFEFBFEF8AA79BA7ACA7A3
:10119000BDA7CE010E947908892B11F023E029C058
:1011A000C45DDD4F88819981CC52D24085559A4AE1
:1011B00011F022E01EC0CC59DF4F88819981AA81AD
:1011C000BB81C456D040B07086549144A445B04011
:1011D00011F420E00EC020E0C058DF4F88819981D3
:1011E000AA81BB81B07086549144A445B04009F0F7
:1011F00021E0822FDF91CF9108952F923F924F925D
:101200005F926F927F928F929F92AF92BF92CF9296
:10121000DF92EF92FF920F931F93DF93CF93CDB79F
:10122000DEB76A970FB6F894DEBF0FBECDBF6C0174
:10123000CB01B42ED6011D921C920E94B2077C01F4
:1012400097FF03C02BE030E05FC2FC01EE0FFF1FF1
:10125000E75CFC4F008111810115110519F42CE0A8
:1012600030E052C2F60111830083D8018C918823AB
:1012700061F011968C910E945D2780FD06C0BB2015
:1012800009F43DC282FD38C23AC2F8011082E182FF
:101290008E2D0E94642780FF03C023E030E034C21B
:1012A000BB2011F082FD28C2C80140E050E060E0A0
:1012B00070E00E94BD08813021F0222433242101F6
:1012C00045C07E010894E11CF11CA7012EEB31E022
:1012D000225D3F4FF801E20FF31F2E523040848110
:1012E000882329F480E090E0A0E0B0E004C080858D
:1012F0009185A285B385FA0181939193A193B193CE
:10130000AF01205F3F4FF1E02E3F3F0709F7F1E1CA
:10131000CF2ED12CCC0EDD1ED7012D903D904D90BF
:101320005C90211431044104510411F482E007C09F
:10133000C801B201A1010E94BD08882379F0E4E050
:10134000F0E0EE0EFF1EEC14FD0431F7833019F4CB
:1013500021E030E0D9C1882309F0D4C1D801D99661
:101360008D919C91DA978050924009F0CBC10C5B33
:101370001F4FF80180819181045410404C01AA2430
:10138000BB2481149104A104B10449F40E5A1F4FE7
:10139000D8018D909D90AD90BC9002551040F80101
:1013A000868A978AA08EB18E46AD4383842F815062
:1013B000823008F0A7C123AD2283222309F4A2C101
:1013C00030E0C901019782239323892B09F09AC148
:1013D000015C1F4FD8016D907C900F531040F801B5
:1013E00071866086C3018F709070892B09F08AC165
:1013F0000F5B1F4FD8018D919C91015410406C01DF
:10140000EE24FF24C114D104E104F10449F4025B89
:101410001F4FF801C080D180E280F3800E5410404D
:10142000D801DC960D90BC91A02DBE8BAD8BAB2B63
:1014300009F468C1242F30E040E050E0C501B40158
:101440000E946038698B7A8B8B8B9C8B4D895E896F
:101450009A0140E050E02F8B388F498F5A8FE4E09B
:1014600076946794EA95E1F74301AA24BB24820E9F
:10147000931EA41EB51E860E971EA81EB91EC81464
:10148000D904EA04FB0408F43DC1C818D908EA08E5
:10149000FB08D80112962C9130E040E050E0C701E3
:1014A000B6010E949238C901DA010097A105B10581
:1014B00009F428C1863FEFE09E07E0E0AE07E0E0D8
:1014C000BE0718F4772473940DC0863FFFEF9F0783
:1014D000F0E0AF07F0E0BF0718F033E0732E02C072
:1014E00022E0722EF2E0CF2ED12CE12CF12CC80E8E
:1014F000D91EEA1EFB1ED8015296CD92DD92ED92C6
:10150000FC925597F801228E338E448E558E8F892A
:10151000988DA98DBA8D820D931DA41DB51D868F42
:10152000978FA0A3B1A3820C931CA41CB51C86A208
:1015300097A2A0A6B1A620853185F3E07F16D9F445
:10154000232B09F0DFC0065A1F4FF80180819181DB
:10155000A281B3810A551040F80182A393A3A4A3EA
:10156000B5A3A7019601E2E0220F331F441F551FC8
:10157000EA95D1F732C0232B09F4C4C029893A89EE
:101580004B895C89820F931FA41FB51FF80182A3AA
:1015900093A3A4A3B5A3D701C601880F991FAA1FBF
:1015A000BB1FF2E07F1619F49C01AD0116C09C012F
:1015B000AD012C0D3D1D4E1D5F1D56954795379570
:1015C000279581E090E0A0E0B0E0C822D922EA228D
:1015D000FB222C0D3D1D4E1D5F1D21503E4F4F4FD8
:1015E0005F4F99E056954795379527959A95D1F78E
:1015F000F80186899789A08DB18D82179307A4077A
:10160000B50708F47FC08FEF9FEFAFEFBFEF86877E
:101610009787A08BB18B82879387A487B58780E853
:101620008583F3E07F1609F057C0025A1F4FD80197
:101630008D919C910E551040019709F04DC0089472
:10164000211C311C411C511CC801B201A1010E9486
:101650007908892B09F040C0F8011582045D1D4FFF
:10166000D8018D919C910C52124085559A4AA1F552
:10167000F80186A597A5A0A9B1A982559245A146D2
:10168000B14451F50E5E1D4FF80180819181A28118
:10169000B3810251124082579247A144B146E1F40E
:1016A0000A5E1D4FF80180819181A281B3810651AC
:1016B0001240F80186879787A08BB18B065E1D4F7D
:1016C000F80180819181A281B3810A511240F80111
:1016D00082879387A487B587D8017C9280913B034A
:1016E00090913C03019690933C0380933B031796A3
:1016F0009C938E93169703C02AE030E005C020E04B
:1017000030E002C02DE030E0C9016A960FB6F894CF
:10171000DEBF0FBECDBFCF91DF911F910F91FF9024
:10172000EF90DF90CF90BF90AF909F908F907F9081
:101730006F905F904F903F902F9008951F93DF938D
:10174000CF9300D000D000D0CDB7DEB79C838B8381
:101750007E836D83142F7A836983CE0101960E9464
:10176000B207DC0197FF03C02BE030E028C0FC018A
:10177000EE0FFF1FE75CFC4F0190F081E02D3097EA
:1017800009F01082EB81FC81309709F010828B8187
:101790009C81AA0FBB1FA75CBC4F8D939C93892B88
:1017A00061F0113051F4CE010396BE016B5F7F4FA3
:1017B00040E00E94FD089C0102C020E030E0C90129
:1017C00026960FB6F894DEBF0FBECDBFCF91DF9146
:1017D0001F9108956F927F928F929F92AF92BF92C6
:1017E000CF92DF92EF92FF920F931F93CF93DF93ED
:1017F0005C016A017B0138014901423051056105F4
:10180000710508F4D1C0F50182899389A489B5894D
:10181000481759076A077B0708F0C6C080818230E5
:1018200009F46CC0833009F489C0813009F0BCC070
:10183000EA01D695C795C40FD51FAE01452F552790
:10184000469560E070E0F501868D978DA0A1B1A16D
:10185000480F591F6A1F7B1FC5010E947908AC0100
:10186000009709F0A3C0DE01B170219686010170D6
:1018700010700115110551F0F501EA0FFB1F86A547
:101880008F70962D9295907F982B01C0962DAA0D62
:10189000BB1D9E969C9381E0F5018483AE01452F8C
:1018A0005527469560E070E0868D978DA0A1B1A187
:1018B000480F591F6A1F7B1FC5010E947908AC01A0
:1018C000009709F073C0D170012B49F014E0969491
:1018D0008794779467941A95D1F7662D0BC0F5011C
:1018E000EC0FFD1F66A5607FBB27A92D982D872DC6
:1018F0008F70682BCA0DDB1D6EA752C0452F562F67
:10190000672F7727F501868D978DA0A1B1A1480F8C
:10191000591F6A1F7B1FC5010E947908AC010097FF
:1019200009F044C0CC0CDD1CEE1CFF1CF601F1706C
:10193000BE96EA0DFB1D7182608232C0E7E07695AB
:10194000679557954795EA95D1F7F501868D978D5F
:10195000A0A1B1A1480F591F6A1F7B1FC5010E949A
:101960007908AC01009711F562E0CC0CDD1CEE1C8F
:10197000FF1C6A95D1F7F601F170BE96EA0DFB1DCA
:1019800080819181A281B38180709070A070B07FBE
:1019900086299729A829B92980839183A283B383B3
:1019A00081E0F501848302C042E050E0CA01DF918A
:1019B000CF911F910F91FF90EF90DF90CF90BF904C
:1019C000AF909F908F907F906F900895BF92CF922D
:1019D000DF92EF92FF920F931F93CF93DF936C01EF
:1019E0007A018B01423051056105710508F4ACC0E4
:1019F000F60182899389A489B589481759076A072E
:101A00007B0708F0A1C08081823009F457C0833081
:101A100009F474C0813009F097C0EA01D695C795E2
:101A2000C40FD51FAE01452F5527469560E070E0E5
:101A3000F601868D978DA0A1B1A1480F591F6A1F8D
:101A40007B1FC6010E947908892B09F082C0FE0124
:101A5000F170EC0DFD1DB6A42196AE01452F552762
:101A6000469560E070E0F601868D978DA0A1B1A14A
:101A7000480F591F6A1F7B1FC6010E947908892BD6
:101A800009F067C06B2D70E0D170CC0DDD1D9EA5F7
:101A900080E0682B792BC70181709070892B39F019
:101AA000B4E076956795BA95E1F79B0124C09B0158
:101AB00040E050E03F70407050704FC0452F562FAF
:101AC000672F7727F601868D978DA0A1B1A1480FCA
:101AD000591F6A1F7B1FC6010E947908892BC9F50F
:101AE000EE0CFF1C001F111FF701F170EC0DFD1D26
:101AF00086A597A59C0140E050E02FC0E7E07695D1
:101B0000679557954795EA95D1F7F601868D978D9C
:101B1000A0A1B1A1480F591F6A1F7B1FC6010E94D7
:101B20007908892BB1F432E0EE0CFF1C001F111F65
:101B30003A95D1F7F701F170EC0DFD1D26A537A5FB
:101B400040A951A95F7009C021E030E040E050E0B9
:101B500004C02FEF3FEF4FEF5FEFB901CA01DF91F4
:101B6000CF911F910F91FF90EF90DF90CF90BF909A
:101B700008956F927F928F929F92AF92BF92CF9271
:101B8000DF92EF92FF920F931F93CF93DF933C016D
:101B90004B01DC0115967C936E9314971696ED908D
:101BA000FD900D911C911997B1E0EB16F104010520
:101BB000110509F4C5C0DC01ED91FC91828993897E
:101BC000A489B589E816F9060A071B0708F0B8C00A
:101BD000E114F10401051105C1F48081833041F461
:101BE00082A193A1A4A1B5A10097A105B10559F4C3
:101BF000808591858816990608F0A2C022A133A19C
:101C000044A155A167C07C018D018281C82EDD24CD
:101C1000E4E0CC0CDD1CEA95E1F727C0CE01B80169
:101C2000A7010E94E60C7B018C016F3FBFEF7B0791
:101C3000BFEF8B07BFEF9B0719F421E030E082C0B4
:101C4000623071058105910508F47AC0D301ED91E8
:101C5000FC9182899389A489B589E816F9060A0757
:101C60001B0708F06DC08C189D08F301C081D1815D
:101C70008C149D0498F67EEFA72E7FEFB72E7FEF92
:101C8000C72E7FEFD72EAE0CBF1CC01ED11E8A8977
:101C90009B89AC89BD890297A109B109A816B9062B
:101CA000CA06DB0628F020E030E040E050E012C039
:101CB0002A8130E040E050E0C601B5010E94603862
:101CC0009B01AC018EA19FA1A8A5B9A5280F391F22
:101CD0004A1F5B1FD3011A96ED92FD920D931C9340
:101CE0001D97211531054105510551F1C40164E0ED
:101CF000969587956A95E1F7A0E0B0E0820F931F73
:101D0000A41FB51FF30186879787A08BB18BFFE0D7
:101D10008F22992435E0880C991C3A95E1F78EE2E0
:101D200090E0880E991ED3018D919C911197880D9A
:101D3000991D53969C938E93529720E030E002C0F9
:101D400022E030E0C901DF91CF911F910F91FF9008
:101D5000EF90DF90CF90BF90AF909F908F907F904B
:101D60006F9008954F925F926F927F928F929F92A1
:101D7000AF92BF92CF92DF92EF92FF920F931F9399
:101D8000CF93DF93EC012A013B0141155105610519
:101D9000710599F48A849B84AC84BD848114910478
:101DA000A104B10451F18A899B89AC89BD89881647
:101DB0009906AA06BB0608F525C00E94E60C9B0101
:101DC000AC01623071058105910508F494C02F3F84
:101DD0008FEF38078FEF48078FEF580709F499C046
:101DE0008A899B89AC89BD89281739074A075B070F
:101DF00008F48FC05301420105C0A1E08A2E912C46
:101E0000A12CB12C750164010894C11CD11CE11CEA
:101E1000F11C8A899B89AC89BD89C816D906EA0656
:101E2000FB0660F022E082169104A104B10408F4DC
:101E30006CC0F2E0CF2ED12CE12CF12CCE01B701F9
:101E4000A6010E94E60C9B01AC016115710581059C
:101E50009105A9F02F3F8FEF38078FEF48078FEFDD
:101E6000580709F456C0213031054105510509F4E0
:101E700050C0C814D904EA04FB0431F646C0BC2C97
:101E8000AD2C9E2C8F2CCE01A601B7010FEF1FEFBA
:101E90002FEF3FE00E94EA0B009759F541145104DF
:101EA0006104710449F0CE01B301A20186019701DA
:101EB0000E94EA0B0097E9F4BA86AB869C868D8671
:101EC0008E859F85A889B9898F3F2FEF92072FEFC5
:101ED000A2072FEFB20751F00197A109B1098E8730
:101EE0009F87A88BB98B8D8181608D83A701960117
:101EF00010C0019729F021E030E040E050E009C037
:101F00002FEF3FEF4FEF5FEF04C020E030E040E005
:101F100050E0B901CA01DF91CF911F910F91FF905D
:101F2000EF90DF90CF90BF90AF909F908F907F9079
:101F30006F905F904F900895AF92BF92CF92DF92D3
:101F4000EF92FF920F931F93CF93DF93EC017A01EF
:101F50008B01423051056105710508F459C08A8929
:101F60009B89AC89BD89481759076A077B0708F424
:101F700044C04EC0CE01B801A7010E94E60C5B012F
:101F80006C01611571058105910509F444C081E07A
:101F9000A816B104C104D104D9F12FEFA2162FEF76
:101FA000B2062FEFC2062FEFD20619F421E030E07F
:101FB00034C0CE01B801A70100E010E020E030E01D
:101FC0000E94EA0B9C01009741F58E859F85A889A8
:101FD000B9898F3F2FEF92072FEFA2072FEFB2079C
:101FE00051F00196A11DB11D8E879F87A88BB98BDB
:101FF0008D8181608D83860175018A899B89AC8979
:10200000BD89E816F9060A071B0708F4B3CF03C019
:1020100022E030E002C020E030E0C901DF91CF9142
:102020001F910F91FF90EF90DF90CF90BF90AF90F6
:102030000895CF92DF92EF92FF920F931F93CF9369
:10204000DF93EC010E94E2078C01009709F076C053
:102050008D81882331F0282F30E02115310539F0AA
:102060006EC08C8181FD03C027E030E068C02E8106
:102070003F81488559858A859B85AC85BD85281714
:1020800039074A075B0708F059C02A873B874C8706
:102090005D878C8180628C838881998121153105CF
:1020A0004105510561F44E855F85688979890E94F3
:1020B0009C0F9C011E861F86188A198A3AC04A897D
:1020C0005B896C897D890E94E60C6B017C018FEF36
:1020D000C8168FEFD8068FEFE8068FEFF80619F4D1
:1020E00021E030E029C081E0C816D104E104F10408
:1020F00081F1E881F98182899389A489B589C8161B
:10210000D906EA06FB06D0F44A895B896C897D8989
:10211000CF010FEF1FEF2FEF3FE00E94EA0B9C0172
:10212000009751F488819981B701A6010E949C0F04
:102130009C012115310519F02D8301C09801C901B9
:10214000DF91CF911F910F91FF90EF90DF90CF9093
:10215000089522E030E0F0CF2F923F924F925F92AD
:102160006F927F928F929F92AF92BF92CF92DF92A7
:10217000EF92FF920F931F93DF93CF9300D000D085
:1021800000D0CDB7DEB79E838D837A018B010E948C
:10219000E2079A838983892B09F0B7C1AD81BE819B
:1021A00015968C91882319F0E82FF0E09DC0AD8141
:1021B000BE811A966D907D908D909C901D976E14A7
:1021C0007F048006910620F414968C9181FF02C052
:1021D00037014801ED81FE81E680F7800085118599
:1021E000168217821086118661147104810491048D
:1021F00009F458C10190F081E02DFC83EB838281CA
:10220000A82EBB24CC24DD2499E0AA0CBB1CCC1C3A
:10221000DD1C9A95D1F7E114F10401051105C1F116
:102220001701280108942108310841085108C40108
:10223000B3016150704080409040A60195010E941A
:10224000923879018A01C201B101A60195010E946B
:102250009238E216F30604071507D0F0882799276D
:10226000DC018A199B09AC09BD0982219321A421B3
:10227000B521ED81FE8186839783A087B187681A97
:10228000790A8A0A9B0A42895389648975893DC003
:10229000AD81BE811E964D915D916D917C9151975E
:1022A000411551056105710551F58B819C8140E017
:1022B00050E060E070E00E94B20EAB01BC01413022
:1022C00051056105710509F465C04F3F3FEF5307A4
:1022D0003FEF63073FEF730751F481E0AD81BE81AB
:1022E00015968C93E1E0F0E0FA83E9830EC1AD81AD
:1022F000BE811E964D935D936D937C935197ED81B6
:10230000FE81428B538B648B758B411551056105A2
:10231000710509F060C0C6C0AD81BE8114968C9174
:1023200014972D913C9181FF0DC0C9010E94B20EFE
:10233000AB01BC01411551056105710541F4350141
:1023400046014FC0C9010E94E60CAB01BC014F3FE2
:10235000BFEF5B07BFEF6B07BFEF7B0749F481E07F
:10236000ED81FE81858321E030E03A832983CDC071
:10237000423051056105710568F0AD81BE81ED9176
:10238000FC9182899389A489B589481759076A07FE
:102390007B0738F082E0ED81FE81858322E030E02A
:1023A000E4CFAD81BE8152964D935D936D937C9346
:1023B0005597ED81FE8186819781A085B1858A0D33
:1023C0009B1DAC1DBD1D86839783A087B1876A18AE
:1023D0007B088C089D08A614B704C804D90408F427
:1023E0009BCFED81FE8186819781A085B185860D89
:1023F000971DA81DB91D86839783A087B187D40137
:10240000C3019170A070B0700097A105B10509F4E7
:1024100049C0C080D1808EEFE82E8FEFF82E8FEF6D
:10242000082F8FEF182FE40EF51E061F171FF60159
:1024300082899389A489B5890297A109B109E8160F
:10244000F9060A071B07C0F4228130E040E050E0A3
:10245000C801B7010E9460389B01AC01F60186A15A
:1024600097A1A0A5B1A5280F391F4A1F5B1F2115F1
:1024700031054105510541F482E0AD81BE811596DB
:102480008C93E2E0F0E030CF84017301B9E016955F
:102490000795F794E794BA95D1F7E20EF31E041F5F
:1024A000151F03C0EE24FF248701ED81FE81868184
:1024B0009781A085B1859170A070B0700097A1053B
:1024C000B10569F086899789A08DB18DE816F90666
:1024D0000A071B0721F0E68AF78A008F118FED812A
:1024E000FE81268137814085518582859385A4852B
:1024F000B58582179307A407B50738F42287338779
:102500004487558784818062848389819A81269655
:102510000FB6F894DEBF0FBECDBFCF91DF911F91F4
:102520000F91FF90EF90DF90CF90BF90AF909F9072
:102530008F907F906F905F904F903F902F90089575
:10254000CF93DF93EC016C817D810E94B90DAC01CA
:102550000097F9F44E855F8568897989888199812A
:102560000E947908AC010097A1F4EA89FB8920E276
:1025700030E001C01192215030408FEF2F3F3807DB
:10258000C9F7EA89FB8985EE8083E881F98181E0DA
:102590008483CA01DF91CF9108952F923F924F9289
:1025A0005F926F927F928F929F92AF92BF92CF92E3
:1025B000DF92EF92FF920F931F93DF93CF9300D0A0
:1025C00000D00F92CDB7DEB79A8389837D836C8369
:1025D0008A01CA01BE016F5F7F4F40E00E94FD0883
:1025E000BC01F80180809180009709F0B9C0F40126
:1025F0002685378540895189E288F38804891589C1
:10260000D801C7010297A109B10982179307A4074E
:10261000B50738F0EC81FD812083318342835383F9
:102620009FC0F401F081FB83F130D1F5AA24BB24D3
:10263000650132E0E32EF12C012D112DC401B8010A
:10264000A7010E94E60C6F3F2FEF72072FEF820762
:102650002FEF920719F421E030E073C0613071056B
:102660008105910519F422E030E06BC06115710518
:102670008105910529F40894A11CB11CC11CD11C31
:102680000894E11CF11C011D111DF401828993893C
:10269000A489B589E816F9060A071B0778F24FC026
:1026A000F401468C578C60A071A02EE2222E312CB2
:1026B000280C391CAA24BB24650120E030E0E0E0AE
:1026C000F0E02115310581F4C401B301A2010E949B
:1026D00079089C010097A9F50894411C511C611CC4
:1026E000711CF10120E032E08B81823069F480813D
:1026F0009181892B29F40894A11CB11CC11CD11C07
:1027000032962250304011C080819181A281B381E4
:10271000BF700097A105B10529F40894A11CB11C54
:10272000C11CD11C3496245030400894E108F108B3
:1027300001091109E114F1040105110511F620E068
:1027400030E0F401A686B786C08AD18A858181608F
:102750008583EC81FD81A082B182C282D382B901DE
:10276000CB010F900F900F900F900F90CF91DF91B2
:102770001F910F91FF90EF90DF90CF90BF90AF909F
:102780009F908F907F906F905F904F903F902F9091
:1027900008952F923F924F925F926F927F928F9205
:1027A0009F92AF92BF92CF92DF92EF92FF920F93E0
:1027B0001F93DF93CF9300D000D0CDB7DEB79C83BB
:1027C0008B83162F072F2A013A832983D9011D9263
:1027D0001C928B819C810E94E2073C01009709F0CA
:1027E00072C1EB81FC818581882319F0682E7724E2
:1027F0006AC1AB81BC8114968C9180FD04C007E056
:10280000602E712C60C1EB81FC812285338544856B
:10281000558586819781A085B185281B390B4A0B88
:102820005B0BC201A0E0B0E0281739074A075B073D
:1028300008F42901812F902F9C01190140C1AB811F
:10284000BC8116962D913D914D915C911997DA01BD
:10285000C9019170A070B0700097A105B10509F091
:10286000DAC0AB81BC81ED91FC91DA01C90119E0BC
:10287000B695A795979587951A95D1F792809A94D2
:10288000982281F5211531054105510539F4EB8177
:10289000FC8166857785808991890BC0AB81BC817D
:1028A00052964D915D916D917C915597CF010E940B
:1028B000E60C623071058105910528F482E0EB8118
:1028C000FC81858347C06F3FFFEF7F07FFEF8F07D6
:1028D000FFEF9F0709F467C0EB81FC81628B738B6C
:1028E000848B958BAB81BC810D911C911197529675
:1028F0002D913D914D915C91559722503040404033
:102900005040F80182899389A489B5890297A10969
:10291000B109281739074A075B07B8F48280682D88
:1029200070E080E090E00E9460389B01AC01F8010B
:1029300086A197A1A0A5B1A5280F391F4A1F5B1F2B
:10294000211531054105510549F482E0AB81BC8177
:1029500015968C93E2E06E2E712CB5C069017A0158
:10296000C90CD11CE11CF11C5201AB2CBB24A69458
:10297000A114B10409F449C0292D30E0C501820F2A
:10298000931F682D70E06817790718F45B01A21A8D
:10299000B30AF8018181B101A701960185010E9466
:1029A0002428892B31F081E0AB81BC8115968C9372
:1029B0004AC0AB81BC81ED91FC918481882301F1F7
:1029C00022A533A544A555A52C193D094E095F093B
:1029D000C501A0E0B0E0281739074A075B0780F47B
:1029E00069E0220F331F441F551F6A95D1F7C101BB
:1029F000820F931FBE96BF0140E052E00E9407077E
:102A00008501102F0027110F3DC0EB81FC81C68A84
:102A1000D78AE08EF18EAB81BC811696ED90FD9049
:102A20000D911C91199756964D915D916D917C91E8
:102A300059978D919C910E947908892B41F081E0F2
:102A4000EB81FC81858341E0642E712C3CC0C70181
:102A5000917020E032E0281B390B820124153505E6
:102A600008F48901AB81BC8116968D919C911797D2
:102A700091708E966D917C91680F791FC101A801AC
:102A80000E940707200E311EC801A0E0B0E0EB81D4
:102A9000FC812681378140855185280F391F4A1FC7
:102AA0005B1F2683378340875187E981FA818081C4
:102AB0009181800F911F91838083401A510A4114A4
:102AC000510409F0BCCEC3010F900F900F900F90EE
:102AD000CF91DF911F910F91FF90EF90DF90CF90FA
:102AE000BF90AF909F908F907F906F905F904F902E
:102AF0003F902F9008954F925F926F927F928F92A6
:102B00009F92AF92BF92CF92DF92EF92FF920F937C
:102B10001F93DF93CF9300D000D0CDB7DEB76C0109
:102B20005B014A017C0100E010E00894A108B108B3
:102B300083E0482E512C4C0E5D1E3E010894611C12
:102B4000711C13C0C401B30141E050E092010E9426
:102B5000C9138B819C81019759F48981F701819375
:102B60007F010F5F1F4F8A3019F00A151B0554F3C0
:102B7000F7011082012B11F4CC24DD24C6010F9043
:102B80000F900F900F90CF91DF911F910F91FF90B9
:102B9000EF90DF90CF90BF90AF909F908F907F90FD
:102BA0006F905F904F9008954F925F926F927F92D7
:102BB0008F929F92AF92BF92CF92DF92EF92FF924D
:102BC0000F931F93CF93DF93EC016B016C807D809B
:102BD0000894611C711C6114710409F44EC18E8546
:102BE0009F85A889B9890097A105B10509F445C158
:102BF0001FE0412E512C462057204114510409F06A
:102C000028C10196A11DB11D8E879F87A88BB98B06
:102C10004A855B856C857D85E881F9814115510583
:102C20006105710539F4808591856816790608F487
:102C300010C123C1828190E001979301A4E03695F1
:102C40002795AA95E1F782239323892B09F001C1E7
:102C5000CF010E94E60C7B018C0162307105810579
:102C6000910508F40DC18FEFE8168FEFF8068FEF8E
:102C700008078FEF180709F406C1E881F9818289F6
:102C80009389A489B589E816F9060A071B0708F491
:102C9000A7C0CD2809F4F1C04A855B856C857D8588
:102CA000CF010E94B20E7B018C0161157105810577
:102CB000910519F427E030E0E8C091E0E916F1044D
:102CC0000105110509F4DCC0AFEFEA16AFEFFA0613
:102CD000AFEF0A07AFEF1A0709F4D5C088819981D1
:102CE0000E941308892B09F0CEC0E881F981BE96B5
:102CF00080E092E001C011920197BFEF8F3F9B07E8
:102D0000D1F7888099802EEFA22E2FEFB22E2FEFD1
:102D1000C22E2FEFD22EAE0CBF1CC01ED11EF4014E
:102D200082899389A489B5890297A109B109A81656
:102D3000B906CA06DB0628F020E030E040E050E0AB
:102D400015C0D40112962C9130E040E050E0C6014D
:102D5000B5010E9460389B01AC01F40186A197A1E6
:102D6000A0A5B1A5280F391F4A1F5B1FD4019A9651
:102D70002D933D934D935C939D97CC24DD24BB24F0
:102D8000B39418C0B482888199810E941308892B5A
:102D900009F079C0E881F98182A593A5A4A5B5A51C
:102DA0000196A11DB11D82A793A7A4A7B5A708945A
:102DB000C11CD11CE881F981828190E0C816D90636
:102DC00008F3960140E050E082A593A5A4A5B5A51F
:102DD000821B930BA40BB50B82A793A7A4A7B5A73F
:102DE000EA86FB860C871D87C880D9808EEF9FEF0F
:102DF000AFEFBFEFE80EF91E0A1F1B1FF601828915
:102E00009389A489B5890297A109B109E816F90641
:102E10000A071B0728F020E030E040E050E015C032
:102E2000D60112962C9130E040E050E0C801B70185
:102E30000E9460389B01AC01F60186A197A1A0A574
:102E4000B1A5280F391F4A1F5B1F2E873F87488B6C
:102E5000598B7D826C8295E0440C551C9A95E1F764
:102E60008EE290E0480E591E88819981840D951D4F
:102E70009B8B8A8B20E030E008C024E030E005C066
:102E800022E030E002C021E030E0C901DF91CF91C3
:102E90001F910F91FF90EF90DF90CF90BF90AF9078
:102EA0009F908F907F906F905F904F9008959F922A
:102EB000AF92BF92CF92DF92EF92FF920F931F9348
:102EC000CF93DF93EC017B01FB0180818F3211F006
:102ED0008C3519F40894E11CF11C1E821F8218869F
:102EE0001986F7018081803268F4CE0160E070E0DD
:102EF0000E94B90D9C011B8A1A8A26C10894E11C04
:102F0000F11C03C000E2F5E09F2EF70180818F32B3
:102F1000A9F38C3599F3AC89BD89FD018BE090E074
:102F200001C0019301972FEF8F3F9207D1F740E047
:102F300050E0AA24BB24E8E0CE2ED12C10E0F7010B
:102F4000EA0DFB1D20810894A11CB11C213208F45C
:102F500068C02F3209F405C12C3509F402C12E32A4
:102F600019F04C155D0580F088E0C816D10409F011
:102F7000E4C02E3209F0E1C0110F110F48E050E01B
:102F80007BE0C72ED12CDBCF27FD1360822F815829
:102F90008F3118F08F558D3108F5F701EA0DFB1DC3
:102FA0003081832F80548F3320F080548D3708F088
:102FB000C4C0C60101974817590708F0BEC008945D
:102FC000A11CB11CFD01E40FF51F2083CA0101966D
:102FD000FD01E80FF91F3083AC0120C0622F70E0C3
:102FE000E0EAF1E001C031968081882339F0992729
:102FF00087FD909586179707B1F79FC0822F815460
:103000008A3110F4126006C0822F81568A3110F482
:1030100011602052FD01E40FF51F20834F5F5F4FC9
:103020008ECF64E0452B09F488C08C91853E09F46D
:103030009C92E8E0CE16D10411F4110F110F212F4C
:1030400030E0C90183709070019709F460612C70C1
:1030500030702430310509F468601B966C93CE0102
:1030600060E070E00E94B90DAC01009781F54E85DB
:103070005F8568897989888199810E947908AC0186
:10308000009729F5EA89FB898081882319F444E0B7
:1030900050E01DC0838583FD14C0DF018C899D89AC
:1030A0009C01F9012BE030E0215030408FEF2F3FA1
:1030B000380769F09C918081981719F41196319620
:1030C000F3CFCE0160E070E00E94D415CDCFEC8943
:1030D000FD8983854115510539F09A014430510528
:1030E00079F582FF2FC030C082FD2AC0AA89BB8932
:1030F0001B968C911B9784FF25C05A968D919C91AD
:103100005B979C0140E050E0E881F9818081833049
:1031100069F454968D919C915597A0E0B0E0DC0144
:1031200099278827282B392B4A2B5B2BEA0CFB1C71
:103130002E833F8348875987E8CE26E030E004C0DD
:103140009A0102C025E030E0C901DF91CF911F91C3
:103150000F91FF90EF90DF90CF90BF90AF909F9036
:10316000089560E05FCFCF92DF92EF92FF920F93CE
:103170001F93DF93CF93CDB7DEB7A4970FB6F89424
:10318000DEBF0FBECDBF9CA38BA36B01ADE0EA2ECB
:10319000F12CEC0EFD1EC701BE016D5D7F4F40E0BE
:1031A0000E94FD088C010097D1F4CE0101969AA3EC
:1031B00089A36BA17CA1C7010E9457178C010097BE
:1031C00071F48F8D98A1892B19F406E010E007C0E7
:1031D000C114D10421F0C701B6010E947007C801D3
:1031E000A4960FB6F894DEBF0FBECDBFCF91DF918E
:1031F0001F910F91FF90EF90DF90CF9008950F9364
:103200001F93DF93CF93CDB7DEB760970FB6F894D7
:10321000DEBF0FBECDBF8C01788B6F87009719F48E
:1032200029E030E05EC0CE010196BE01615F7F4FB4
:1032300040E00E94FD089C01009709F04FC0898181
:103240009A81F80191838083CE010396958B848BBC
:103250006F857889C8010E9457179C010097A9F5CE
:10326000F801A289B389109719F11B968C911B97CD
:1032700084FF32C05A968D919C915B979C0140E0EF
:1032800050E0E981FA818081833069F454968D9110
:103290009C915597A0E0B0E0DC0199278827282B66
:1032A000392B4A2B5B2BF8012683378340875187C4
:1032B000E981FA8186819781F80193838283C8012D
:1032C00060E070E00E94B90D9C012430310521F0CE
:1032D0002115310531F002C025E030E0F8011182FE
:1032E0001082C90160960FB6F894DEBF0FBECDBF45
:1032F000CF91DF911F910F9108950F931F93CF935B
:10330000DF938C0160E070E00E94B90DEC01009742
:10331000F1F4D8011E964D915D916D917C9151977C
:103320008D919C910E947908EC01009781F4D8015D
:103330005296ED91FC915397E081E53E81F1EE23A9
:1033400071F1C80161E070E00E94D415DFCFC43094
:10335000D105F9F4C7E0D0E01CC0D8015296ED9138
:10336000FC91539780E290E001C011920197BFEF6A
:103370008F3F9B07D1F7F80164897589828993890A
:103380004BE050E00E940707D801ED91FC9181E0ED
:103390008483CE01DF91CF911F910F910895F801A1
:1033A0004685578560897189808191810E9479085D
:1033B000EC01009791F2EDCF2F923F925F926F92C6
:1033C0007F928F929F92AF92BF92CF92DF92EF92B5
:1033D000FF920F931F93DF93CF93CDB7DEB7A497E0
:1033E0000FB6F894DEBF0FBECDBF3C017CA36BA32C
:1033F000009721F4A9E02A2E312C16C1DC011D9280
:103400001C92FFE15F2E54228E01035F1F4F4E710D
:10341000C801BE016D5D7F4F0E94FD081C01009731
:1034200009F002C1CE0101969AA389A36BA17CA1E8
:10343000C8010E9457179C01CF8CD8A0009729F48F
:10344000C114D10411F426E030E0452D50E0CA014A
:103450008C719070892B09F47CC02115310589F09D
:103460002430310529F4CE010D960E947D199C016E
:10347000CF8CD8A02115310509F0F4C0B8E05B2A43
:1034800007C0F6018385817109F0EAC052FCE5C0EE
:1034900053FE6EC080E090E0A9E6B5E4F6018687B1
:1034A0009787A08BB18B1386D6015C961D921D92D7
:1034B0001D921C925F979601265E3F4F5A968D9102
:1034C0009C915B977C0100E010E0ED85FE8580819A
:1034D000833069F454968D919C915597A0E0B0E0AB
:1034E000DC0199278827E82AF92A0A2B1B2BF901E6
:1034F00011821082D60155961C921E925497ED852A
:10350000FE8581E08483E114F1040105110581F158
:1035100082A493A4A4A4B5A4CF01B801A7010E94DA
:103520009C0F9C01009709F09DC0ED85FE850894D5
:10353000E108F10801091109E286F386048715877D
:10354000CF01B501A4010E9479089C01009781F088
:1035500089C02115310509F085C0F601838584FFF6
:1035600003C024E030E07EC051FE02C080FD78C080
:1035700053FE02C0F0E25F2AED85FE8522A533A549
:1035800044A555A5D3015A962D933D934D935C9335
:103590005D975F96DC92CE925E9714965C9214973C
:1035A00015961C92D6015A968D919C915B979C0121
:1035B00040E050E08081833069F454968D919C9175
:1035C0005597A0E0B0E0DC0199278827282B392BFC
:1035D0004A2B5B2BD3011E962D933D934D935C9309
:1035E0005197D6015C962D913D914D915C915F97DD
:1035F000D3011A962D933D934D935C931D97169688
:103600001D921D921D921C92199756961D921D9205
:103610001D921C9259971196FC93EE938681978187
:1036200013969C938E931297C101A4960FB6F894AB
:10363000DEBF0FBECDBFCF91DF911F910F91FF90E5
:10364000EF90DF90CF90BF90AF909F908F907F9042
:103650006F905F903F902F90089528E030E002C077
:1036600027E030E01901E0CF0F931F93CF93DF9352
:10367000EC018B0124E030E027C0888199810E9411
:1036800079089C01009761F5EA89FB89808188238C
:1036900089F19385853E81F08E3271F0892F8F7389
:1036A0008F3051F040E050E08F71883011F441E0EC
:1036B00050E040175107C1F0CE0160E070E00E9479
:1036C000D4159C01009761F44E855F8568897989DE
:1036D000411551056105710581F62115310521F06E
:1036E0001E861F86188A198AC901DF91CF911F9102
:1036F0000F91089524E030E0F3CFEF92FF920F9303
:103700001F93DF93CF93CDB7DEB72C970FB6F89406
:10371000DEBF0FBECDBF8C017B010E94E207009788
:1037200041F4E114F10439F4C80160E070E00E9452
:10373000B90D9C012AC0CE010196F801958B848BAE
:10374000C80160E070E00E94341B9C018430910548
:1037500031F4F80116861786108A118A02C0009784
:10376000A1F4C801B7010E947007C80160E070E0D1
:103770000E94D4159C018430910539F4F801168615
:103780001786108A118A20E030E0C9012C960FB606
:10379000F894DEBF0FBECDBFCF91DF911F910F9187
:1037A000FF90EF9008952F923F924F925F926F9209
:1037B0007F928F929F92AF92BF92CF92DF92EF92C1
:1037C000FF920F931F93DF93CF9300D000D0CDB71C
:1037D000DEB79C838B83162F072F2A013A83298318
:1037E000D9011D921C928B819C810E94E2074C01A1
:1037F000009709F0F5C1EB81FC818581882319F0E0
:10380000882E9924EDC1AB81BC8114968C9181FDE9
:1038100004C077E0872E912CE3C1EB81FC812681E7
:10382000378140855185C201A0E0B0E0820F931F2F
:10383000A41FB51F82179307A407B50710F44424EB
:103840005524812F902F9C011901A5C1AB81BC810A
:1038500016962D913D914D915C911997DA01C90110
:103860009170A070B0700097A105B10509F038C142
:10387000AB81BC81ED91FC91DA01C90169E0B6959B
:10388000A795979587956A95D1F772807A94782253
:1038900009F054C0211531054105510599F4AB815A
:1038A000BC811E962D913D914D915C9151972115B2
:1038B000310541055105C9F4CF0140E050E060E019
:1038C00070E009C0AB81BC8152964D915D916D91C4
:1038D0007C915597CF010E94B20E9B01AC016115FE
:1038E00071058105910509F45AC121303105410561
:1038F000510529F482E0EB81FC81858371C02F3F63
:10390000FFEF3F07FFEF4F07FFEF5F0709F4D4C05A
:10391000EB81FC81228B338B448B558B868597857D
:10392000A089B1890097A105B10541F4AB81BC81A3
:103930001E962D933D934D935C935197AB81BC8123
:10394000ED91FC91119722A533A544A555A5569656
:10395000ED90FD900D911C9159972E153F05400754
:10396000510731F4CF010E941308892B09F0CCC014
:10397000AB81BC810D911C91119752962D913D9177
:103980004D915C9155972250304040405040F80195
:1039900082899389A489B5890297A109B109281759
:1039A00039074A075B07B8F46280662D70E080E053
:1039B00090E00E9460389B01AC01F80186A197A1BC
:1039C000A0A5B1A5280F391F4A1F5B1F211531057E
:1039D0004105510549F482E0AB81BC8115968C9379
:1039E00032E0832E912CFCC069017A01C70CD11CF6
:1039F000E11CF11C5201AB2CBB24A694A114B10410
:103A000009F446C0272D30E0C501820F931F662DB3
:103A100070E06817790718F45B01A21AB30AF8017D
:103A20008181B101A701960185010E947428892B2B
:103A300009F042C0AB81BC81ED91FC9122A533A578
:103A400044A555A52C193D094E095F09C501A0E003
:103A5000B0E0281739074A075B07A8F499E0220F5E
:103A6000331F441F551F9A95D1F7B101620F731F81
:103A7000CF018E9640E052E00E940707AB81BC81E7
:103A8000ED91FC9114828501102F0027110F66C063
:103A9000EB81FC8126813781408551858285938524
:103AA000A485B585281739074A075B0798F0C80130
:103AB0000E941308892B31F081E0AB81BC811596FF
:103AC0008C9326C0AB81BC81ED91FC91C2A6D3A69C
:103AD000E4A6F5A6EB81FC81C68AD78AE08EF18E3A
:103AE000AB81BC811696ED90FD900D911C911997BC
:103AF00056964D915D916D917C9159978D919C91C8
:103B00000E947908892B41F081E0EB81FC8185835B
:103B1000B1E08B2E912C64C0C701917020E032E09F
:103B2000281B390B82012415350508F48901AB8166
:103B3000BC8116962D913C9117973170225D3F4FB5
:103B40008D919C91820F931FB101A8010E940707DC
:103B5000AB81BC81ED91FC91B1E0B483200E311EAC
:103B6000C801A0E0B0E0EB81FC812681378140856F
:103B70005185280F391F4A1F5B1F268337834087D3
:103B80005187E981FA8180819181800F911F918312
:103B90008083401A510A4114510409F057CEAB8179
:103BA000BC8116962D913D914D915C9119971A9675
:103BB0008D919D910D90BC91A02D82179307A40724
:103BC000B50730F4EB81FC81228733874487558722
:103BD000AB81BC8114968C911497806214968C935F
:103BE000C4010F900F900F900F90CF91DF911F9114
:103BF0000F91FF90EF90DF90CF90BF90AF909F908C
:103C00008F907F906F905F904F903F902F9008958E
:103C1000EF92FF920F931F93DF93CF9300D0CDB716
:103C2000DEB78C01FC014281538157FD2AC0E40FAD
:103C3000F51F66837A010894E11CF11CFDE3EF1681
:103C4000F104BCF0BC016A5F7F4FFC01808191816F
:103C5000A7019E012F5F3F4F0E94D31B89819A814C
:103C60008E159F0521F0EE24EA94FE2C02C0EE246E
:103C7000FF24F801F382E282848195810196958385
:103C800084830F900F90CF91DF911F910F91FF9040
:103C9000EF9008952F923F924F925F926F927F9292
:103CA0008F929F92AF92BF92CF92DF92EF92FF924C
:103CB0000F931F93DF93CF93CDB7DEB7CC55D04092
:103CC0000FB6F894DEBF0FBECDBFE5966EAC7FACED
:103CD000E597E3968EAD9FADE3979C8B8B8B1E8A09
:103CE0001D8A188E1F8A65E7E62EF12CEC0EFD1E4C
:103CF0005DE2252E01C07201D3016C91662309F4A7
:103D00007FC10894611C711C653219F0CE01439685
:103D1000AFC0F301B1903F01F0E3BF1631F4D3011E
:103D2000BD903D01332433940AC0BDE2BB1611F0AF
:103D3000332405C0F301B1903F0142E0342E8824C2
:103D4000992417C0C40133E0880F991F3A95E1F711
:103D5000880C991C880E991E8B2D992787FD9095AC
:103D6000880E991E80ED9FEF880E991ED301BD909D
:103D70003D018B2D80538A3028F3BCE6BB1619F029
:103D8000ECE4BE1629F4F4E03F2AD301BD903D01D6
:103D9000BB2009F435C18B2D81568A3110F0AB2D33
:103DA00002C0AB2DA052AF34A1F0A0354CF4A33427
:103DB00009F44DC0A43479F0A23409F056C05CC0B7
:103DC000A53549F0A83509F44EC0A33509F04DC01A
:103DD00004C028E052C02AE050C002E0402E512C1E
:103DE0004E0C5F1CF701E080F18000E010E002C0A3
:103DF0000F5F1F4FF701E00FF11F80818823C1F78C
:103E000031FE06C014C0CE01439660E20E94081E37
:103E10000F5F1F4FC801019788159905A0F307C0D0
:103E20000894E11CF11CCE0143960E94081ED701A4
:103E30006C916623A9F707C0CE01439660E20E9409
:103E4000081E0F5F1F4F08151905B0F354CF12E07D
:103E5000412E512C4E0C5F1CCE014396F701608120
:103E60000E94081E48CF20E108C0CE0143966B2D6A
:103E70000E94081E27013FCF22E032FE0DC0B4E0B1
:103E80004B2E512C4E0C5F1CF701E080F18002811B
:103E90001381A43409F514C087010E5F1F4FF70189
:103EA00060817181A43439F428017B010027F7FC7B
:103EB0000095102F05C028017B0100E010E00CC028
:103EC00017FF0AC010950095F094E094E11CF11CD6
:103ED000011D111DF8E03F2ACC24DD24822F90E043
:103EE000A0E0B0E06D968CAF9DAFAEAFBFAF6D9769
:103EF000C801B7016D962CAD3DAD4EAD5FAD6D9770
:103F00000E949238A62EC801B7016D962CAD3DAD2A
:103F10004EAD5FAD6D970E949238C901DA017C0108
:103F20008D01E9E0EA153CF4F8E7BF1611F027E04F
:103F300001C027E2A20EE3E0F0E0EC0FFD1FEC0D64
:103F4000FD1D20E3A20EA0820894C11CD11C009785
:103F5000A105B10521F080E1C816D10449F6832DF1
:103F600090E033FE0AC0E3E0F0E0EC0FFD1FEC0D43
:103F7000FD1D20820894C11CD11C80FD03C0F0E20D
:103F8000BF2E02C0E0E3BE2E76018C0102701070DD
:103F900005C0CE0143966B2D0E94081E0115110528
:103FA00041F40894E11CF11CC7010197881599059B
:103FB00080F30894C108D10803E010E00C0F1D1F26
:103FC0000C0D1D1D0894C11CD11C0894C108D108FA
:103FD000CE014396D8016C910E94081E01501040FA
:103FE000C114D10491F708C0CE0143966B2D0E94F5
:103FF000081E0894E11CF11CE814F904A8F37BCE18
:104000004D895E8957FD16C08B899C89BE01675E0C
:104010007F4F9E012F5F3F4F0E94D31B892B51F48E
:104020002D893E8989819A812817390719F42F89AA
:10403000388D02C02FEF3FEFC901C45ADF4F0FB6D2
:10404000F894DEBF0FBECDBFCF91DF911F910F91CE
:10405000FF90EF90DF90CF90BF90AF909F908F90A8
:104060007F906F905F904F903F902F900895EF92C8
:10407000FF920F931F93DF93CF93CDB7DEB7C85452
:10408000D0400FB6F894DEBF0FBECDBF8C017C834D
:104090006B831E821D8218861F8273E0E72EF12C2F
:1040A000EC0EFD1E05C00F5F1F4FC7010E94081ECA
:1040B000F80160816623B9F74D815E8157FD16C016
:1040C0008B819C81BE01675F7F4F9E012F5F3F4FB9
:1040D0000E94D31B892B51F42D813E8189819A81C5
:1040E0002817390719F42F81388502C02FEF3FEFC9
:1040F000C901C85BDF4F0FB6F894DEBF0FBECDBF5E
:10410000CF91DF911F910F91FF90EF900895DF9372
:10411000CF93CDB7DEB7C854D0400FB6F894DEBF0A
:104120000FBECDBF282F7C836B831E821D82188615
:104130001F82CE010396622F0E94081E4D815E8170
:1041400057FD16C08B819C81BE01675F7F4F9E012A
:104150002F5F3F4F0E94D31B892B51F42D813E814D
:1041600089819A812817390719F42F81388502C06F
:104170002FEF3FEFC901C85BDF4F0FB6F894DEBFEA
:104180000FBECDBFCF91DF9108950F931F93CF93B3
:10419000DF93EC010E9413089C01009709F066C0B0
:1041A0008881833009F057C08D81813009F053C078
:1041B000BE01625D7F4FFB0180E092E001C0119281
:1041C00001972FEF8F3F9207D1F7C45DDD4F85E553
:1041D0009AEA99838883CC52D24082E592E5A1E69F
:1041E000B1E48EA79FA7A8ABB9ABCE5EDD4F82E747
:1041F00092E7A1E4B1E688839983AA83BB83C25185
:10420000D2408E859F85A889B989CA5EDD4F888393
:104210009983AA83BB83C651D2408A859B85AC858E
:10422000BD85C65EDD4F88839983AA83BB83CA514F
:10423000D2402A8D3B8D4C8D5D8D2F5F3F4F4F4F70
:104240005F4F2AA73BA74CA75DA7898101E010E03B
:104250000E9474281D82898160E040E050E00E9445
:10426000E028009711F081E090E09C01C901DF9106
:10427000CF911F910F910895EF92FF920F931F938B
:10428000DF93CF93CDB7DEB7A4970FB6F894DEBF18
:104290000FBECDBF9CA38BA38B01EDE0EE2EF12CC6
:1042A000EC0EFD1EC701BE016D5D7F4F41E00E9417
:1042B000FD089C01009741F5CE0101969AA389A3C0
:1042C0006BA17CA1C7010E9457179C010097E1F4E4
:1042D000EF8DF8A1309719F426E030E015C0D80131
:1042E00016968D919C911797978B868B14968D912E
:1042F0009C911597918F808FED85FE8581E0848359
:10430000CF010E94C5209C01C901A4960FB6F89464
:10431000DEBF0FBECDBFCF91DF911F910F91FF90F8
:10432000EF900895CF92DF92EF92FF920F931F9339
:10433000DF93CF93CDB7DEB7C155D0400FB6F89419
:10434000DEBF0FBECDBF8E01025B1F4FF801918310
:104350008083E0E5CE2ED12CCC0EDD1EF6017183DC
:10436000608372E2E72EF12CEC0EFD1EC701B8014E
:1043700041E00E94FD089C01009709F0EEC08AA16F
:104380009BA199AF88AFCE0101969FAB8EABF80190
:1043900060817181C7010E9457179C01009709F045
:1043A000DCC06CA97DA96115710519F424E030E029
:1043B000D4C0655F7F4FCE010D9645E150E00E946D
:1043C00007078E01085C1F4FC801B70146E150E0A6
:1043D0000E940707C6010E94B20797FF03C02BE0A7
:1043E00030E0BBC0F60160817181C8010E9457179F
:1043F0009C01009719F428E030E0AFC084309105AB
:1044000009F0ABC0C8010E947D199C01009709F01A
:10441000A4C0FE01E65BFF4F00811181C8010D962B
:10442000BE01615F7F4F43E150E00E9407078D8529
:104430008062F8018387CAA0DBA081E0F601848353
:10444000F801838584FF7AC028A539A54AA55BA514
:10445000FE01FE9680819181A281B38128173907E0
:104460004A075B0709F46AC0F801828D938D9C01AD
:1044700040E050E0F6018081833061F4F8018489E6
:104480009589A0E0B0E0DC0199278827282B392BFB
:104490004A2B5B2B8EEFE82E8FEFF82E8FEF082F35
:1044A0008FEF182FE20EF31E041F151FF6018289ED
:1044B0009389A489B5890297A109B109E816F9067B
:1044C0000A071B0708F047C0228130E040E050E0B7
:1044D000C801B7010E946038AB01BC01F60186A19A
:1044E00097A1A0A5B1A5480F591F6A1F7B1F4115B1
:1044F00051056105710579F1C6010E9479089C0199
:104500008AA19BA12115310541F59C01225B3F4FFA
:10451000F90181818E3291F4FE01FE9680819181B4
:10452000A281B381F901938F828FCD01AA27BB2786
:10453000958B848BEAA1FBA181E08483CE018296D6
:104540000E94A0129C01009741F48AA19BA10E94A5
:10455000C5209C0102C022E030E0C901CF5ADF4FE4
:104560000FB6F894DEBF0FBECDBFCF91DF911F9184
:104570000F91FF90EF90DF90CF900895EF92FF9210
:104580000F931F93DF93CF93CDB7DEB7A4970FB6EA
:10459000F894DEBF0FBECDBF9CA38BA3E62EF42EF6
:1045A0008E01035F1F4FC801BE016D5D7F4F41E06B
:1045B0000E94FD089C01009721F5CE0101969AA367
:1045C00089A36BA17CA1C8010E9457179C01009789
:1045D000C1F4EF8DF8A1309719F426E030E011C056
:1045E0009F2D9772892F8095238582239E21892B69
:1045F0008387ED85FE8581E08483CF010E94C520FD
:104600009C01C901A4960FB6F894DEBF0FBECDBFC2
:10461000CF91DF911F910F91FF90EF9008952F920E
:104620003F924F925F926F927F928F929F92AF9242
:10463000BF92CF92DF92EF92FF920F931F93DF937F
:10464000CF93CDB7DEB7A6970FB6F894DEBF0FBEF7
:10465000CDBF9CA38BA39DE0E92EF12CEC0EFD1E9B
:10466000C701BE016D5D7F4F41E00E94FD088C01D6
:10467000009709F01BC1CE0101969AA389A36BA1F3
:104680007CA1C7010E9457178C01009719F408E01C
:1046900010E00CC18430910509F008C18D859E851C
:1046A00040E050E060E070E00E94B20E4B015C011F
:1046B000611571058105910519F407E010E0D5C079
:1046C000613071058105910519F402E010E0CDC05B
:1046D0006F3F3FEF73073FEF83073FEF930709F407
:1046E000FFC08D859E850E9413088C01009709F0FC
:1046F000BCC0CD84DE848EEFE82E8FEFF82E8FEFD6
:10470000082F8FEF182FE80CF91C0A1D1B1DF6014E
:1047100082899389A489B5890297A109B109E8160C
:10472000F9060A071B0720F044245524320114C05F
:10473000F601228130E040E050E0C801B7010E945C
:1047400060382B013C01F60186A197A1A0A5B1A577
:10475000480E591E6A1E7B1E1EE2E12EF12CEC0C47
:10476000FD1CF70180E092E001C0119201972FEF4C
:104770008F3F9207D1F7F7018BE090E020E201C074
:10478000219301973FEF8F3F9307D1F71EE2F60188
:1047900016A780E181AF80E090E0A9E6B5E4F701DB
:1047A000868B978BA08FB18F9EA28DA2938E828EC7
:1047B000C501AA27BB271C01958B848BC701809656
:1047C000B70140E250E00E9407072FE430E0C20E3C
:1047D000D31EF601108321EB3FEFC20ED31E2B89AF
:1047E0003C894D895E89ED85FE858081833069F441
:1047F00082A193A1A4A1B5A1281739074A075B0795
:1048000021F420E030E040E050E0F601E25BFF4FB1
:10481000338F228FCA01AA27BB27958B848BED8506
:10482000FE85D280CC24C3941DC0ED85FE8542A6B2
:1048300053A664A675A6C482CF010E9413088C01FA
:10484000009799F4F70180E092E001C0119201977E
:104850003FEF8F3F9307D1F70894411C511C611C17
:10486000711CDA94DD2009F73EC08D859E85B50167
:10487000A4010E949C0F1AC0EF8DF8A180E18387EC
:1048800080E090E0A9E6B5E4868B978BA08FB18F8E
:104890008DA19EA1938F828F358A248AED85FE8516
:1048A00081E08483CF010E94C5208C01C801A696B7
:1048B0000FB6F894DEBF0FBECDBFCF91DF911F9131
:1048C0000F91FF90EF90DF90CF90BF90AF909F90AF
:1048D0008F907F906F905F904F903F902F900895B2
:1048E00001E010E0C2CFCE010D960E947D198C012F
:1048F000009711F2BACFCF92DF92EF92FF920F930F
:104900001F93DF93CF93CDB7DEB7EA970FB6F89436
:10491000DEBF0FBECDBF9AAF89AF8E01035F1F4FC1
:10492000C801BE01675C7F4F41E00E94FD089C0109
:10493000009709F06AC0CE0101969AA389A369ADD8
:104940007AADC8010E9457179C01009709F05DC01D
:10495000AF8DB8A1109719F426E030E056C01B9631
:104960008C911B97282F80FF60C06DC054968D914D
:104970009C915597A0E0B0E0DC0199278827E82AB0
:10498000F92A0A2B1B2B24FF61C0E114F104010555
:10499000110519F422E030E038C023E2C22ED12CF8
:1049A000CC0EDD1EC601BE01635F7F4F46E150E0C5
:1049B0000E940707E9A6FAA60BA71CA7C60162E09A
:1049C00070E00E94B90D9C010097F9F4C60160E007
:1049D00070E00E94341B9C010097A9F1843091057E
:1049E000A9F113C0E114F1040105110549F08D8509
:1049F0009E85B801A7010E949C0F9C01009729F495
:104A00008D859E850E94C5209C01C901EA960FB63E
:104A1000F894DEBF0FBECDBFCF91DF911F910F91F4
:104A2000FF90EF90DF90CF9008955A968D919C91D2
:104A30005B977C0100E010E0ED85FE85808183308E
:104A400009F0A1CF93CF27E030E0DFCFCE010D9664
:104A50000E94A0129C01009729F2D7CFCF93DF9339
:104A6000EC010E94E2079C010097E1F58C8185FF33
:104A700039C04A8D5B8D6C8D7D8D888199810E94B6
:104A800079089C01009771F5EE8DFF8D838580621A
:104A900083878A859B85AC85BD85848F958FA68FFE
:104AA000B78F8E859F85A889B989938F828FCD0115
:104AB000AA27BB27958B848B80E090E0A9E6B5E41C
:104AC000868B978BA08FB18F138A128A8C818F7DF2
:104AD0008C83E881F98181E08483888199810E94B7
:104AE000C5209C01C901DF91CF910895CF93DF9339
:104AF000EC010E942E259C01009741F4CE010E94FA
:104B0000E2079C01009711F419821882C901DF9114
:104B1000CF910895FC01819187FF02C02A9A01C0BC
:104B20002A98299A299886FF02C02A9A01C02A98B1
:104B3000299A299885FF02C02A9A01C02A98299AA1
:104B4000299884FF02C02A9A01C02A98299A299894
:104B500083FF02C02A9A01C02A98299A299882FFC5
:104B600002C02A9A01C02A98299A299881FF02C076
:104B70002A9A01C02A98299A299880FF02C02A9A65
:104B800001C02A98299A29986150704021F6089509
:104B9000FC012A9A83B190E023E0969587952A95A7
:104BA000E1F78170299A2998880F1B998F5F299ABC
:104BB0002998880F1B998F5F299A2998880F1B992C
:104BC0008F5F299A2998880F1B998F5F299A2998B6
:104BD000880F1B998F5F299A2998880F1B998F5FDF
:104BE000299A2998880F1B998F5F299A2998808381
:104BF0006150704011F03196CDCF0895EF92FF9241
:104C00000F931F93DF93CF930F92CDB7DEB708E8D2
:104C100013E17E010894E11CF11CC70161E070E022
:104C20000E94C82589818F3F59F084E690E023B126
:104C300023B123B123B10197D1F70150104069F797
:104C400098010115110511F021E030E0C9010F9024
:104C5000CF91DF911F910F91FF90EF900895DF9317
:104C6000CF930F92CDB7DEB7289ACE01019661E0BF
:104C700070E00E94C8250F90CF91DF910895DF93D7
:104C8000CF930F92CDB7DEB72898CE01019661E0A1
:104C900070E00E94C8250E94FE25892B19F021E0B2
:104CA00030E004C00E942F2620E030E0C9010F90C0
:104CB000CF91DF910895AF92BF92CF92DF92EF92A2
:104CC000FF920F931F93DF93CF9300D0CDB7DEB742
:104CD0007C016B0108EE13E05E010894A11CB11C7D
:104CE000C50161E070E00E94C82589818F3F59F4B9
:104CF00084E690E023B123B123B123B10197D1F72A
:104D00000150104069F789818E3F19F020E030E0B2
:104D10000CC0C701B6010E94C825CE01019662E011
:104D200070E00E94C82521E030E0C9010F900F908B
:104D3000CF91DF911F910F91FF90EF90DF90CF9077
:104D4000BF90AF900895DF92EF92FF920F931F9361
:104D5000DF93CF9300D0CDB7DEB77C01D62E0E9473
:104D6000FE25892B19F420E030E028C0D9828E017D
:104D70000F5F1F4FC80161E070E00E948A258DEF30
:104D8000D81619F421E030E019C0C70160E072E0E4
:104D90000E948A25C80162E070E00E94C825C8010F
:104DA00061E070E00E94C82590E089818F718530B4
:104DB00009F091E081E09827292F30E0C9010F9098
:104DC0000F90CF91DF911F910F91FF90EF90DF90A7
:104DD0000895DF92EF92FF920F931F93DF93CF938B
:104DE000CDB7DEB727970FB6F894DEBF0FBECDBFA5
:104DF000D82E7A018B0187FF0CC087E340E050E09A
:104E000060E070E00E94E926823008F048C08FE739
:104E1000D8228CE0D81661F00E942F260E943F26EF
:104E2000892B11F48FEF3BC0DD2011F425E906C07A
:104E300088E0D81611F427E801C021E08D2D8064A8
:104E40008A83812F9927AA27BB278B83C801AA278A
:104E5000BB278C83BB27A12F902F8F2D8D83EE82B4
:104E60002F83CE01029666E070E00E948A258CE0D6
:104E7000D81631F4CE01019661E070E00E94C82599
:104E80001AE07E010894E11CF11CC70161E070E0AA
:104E90000E94C825898187FF02C01150B1F727966B
:104EA0000FB6F894DEBF0FBECDBFCF91DF911F913B
:104EB0000F91FF90EF90DF900895882311F081E02B
:104EC00008958091AF010895EF92FF920F931F9381
:104ED000DF93CF9300D000D0CDB7DEB7882311F099
:104EE00013E0A6C080E197E223B123B123B123B13F
:104EF0000197D1F7209A289A219A2998229A1AE0A4
:104F00007E010894E11CF11CC70161E070E00E9481
:104F1000C8251150C9F780E040E050E060E070E043
:104F20000E94E926813009F078C088E04AEA51E021
:104F300060E070E00E94E926813009F03DC0C701C1
:104F400064E070E00E94C8258B81813009F065C063
:104F50008C818A3A09F061C008EE13E089EA40E0EA
:104F600050E060E070E40E94E926882361F088EE5A
:104F700093E023B123B123B123B10197D1F70150BD
:104F8000104061F74AC08AE340E050E060E070E022
:104F90000E94E926882309F040C0CE01019664E012
:104FA00070E00E94C825898186FD03C0F4E0FF2ED1
:104FB00035C0ECE0FE2E32C089EA40E050E060E00F
:104FC00070E00E94E926823028F0FF24F394EE245A
:104FD000E39404C072E0F72E69EAE62E08EE13E0CF
:104FE0008E2D40E050E060E070E00E94E9268823CA
:104FF00061F088EE93E023B123B123B123B101978F
:10500000D1F70150104061F708C080E140E052E064
:1050100060E070E00E94E9268111FF24F0923D03D8
:1050200010E0FF2009F411E01093AF010E942F2639
:10503000812F0F900F900F900F90CF91DF911F91C4
:105040000F91FF90EF900895FF920F931F93CF93CE
:10505000DF93EB01882311F081E002C08091AF0162
:1050600080FF03C003E010E038C080913D0383FD62
:1050700007C089E0220F331F441F551F8A95D1F7BF
:105080000230110518F4B1E1FB2E02C0A2E1FA2EA4
:105090008F2DBA01A9010E94E9268823B9F4CE0117
:1050A00060E072E00E945B26892B31F001501040D5
:1050B00019F0C050DE4FF3CF82E1F81639F48CE0DE
:1050C00040E050E060E070E00E94E9260E942F2658
:1050D0000115110511F001E010E0C801DF91CF9139
:1050E0001F910F91FF900895CF92DF92EF92FF9260
:1050F0000F931F93CF93DF93EB0169017A0188230C
:1051000011F081E002C08091AF0180FF03C003E095
:1051100010E04CC080913D0390E083FD07C029E082
:10512000CC0CDD1CEE1CFF1C2A95D1F701301105BB
:1051300081F488E1B701A6010E94E926882379F568
:10514000CE016EEF0E94A326892B49F100E010E00A
:1051500026C086709070892B31F0A80160E070E065
:1051600087E90E94E92689E1B701A6010E94E926A4
:105170008823A9F4CE016CEF0E94A326892B31F07D
:105180000150104019F0C050DE4FF4CF80E090E0A5
:105190006DEF0E94A326892B11F401E010E00E941C
:1051A0002F260115110511F001E010E0C801DF9173
:1051B000CF911F910F91FF90EF90DF90CF900895C6
:1051C0000F931F93DF93CF93CDB7DEB760970FB6E2
:1051D000F894DEBF0FBECDBF8A01882311F081E0B5
:1051E00002C08091AF0180FF03C003E010E090C0D7
:1051F000613071F0613030F0633009F47BC004E05D
:1052000010E084C00E943F26892B09F47DC041C074
:1052100089E040E050E060E070E00E94E9268823E9
:1052200009F072C0CE01019660E170E00E945B2639
:10523000892B09F469C0898182958695869583704A
:10524000288569857A85813039F530E040E050E085
:105250002F73307040705070A901332722272F5FC1
:105260003F4F4F4F5F4F962F80E0870F911DA0E07B
:10527000B0E0280F391F4A1F5B1F6AE0220F331F5F
:10528000441F551F6A95D1F7F8012083318342836B
:10529000538300E010E03AC06295669566956370AE
:1052A00030E0220F331F220F331F260F311D2F5FD7
:1052B0003F4F8F8190E083709070982F8827990FCF
:1052C000990F280F391F40E050E08E818F706B8559
:1052D000661F6627661F860F8E5F7370770F870FB6
:1052E00090E0099704C0220F331F441F551F8A9571
:1052F000D2F7CACF80E890E0A0E0B0E0F801808368
:105300009183A283B383C5CF01E010E00E942F26D2
:10531000C80160960FB6F894DEBF0FBECDBFCF9127
:10532000DF911F910F91089593E89093B00091E061
:105330009093B1008093B30008959C0190937805F9
:105340008093770586E390E0809300402115310536
:1053500089F480EF90E0909374058093730580E466
:1053600091E0909376058093750588E490E08093B2
:1053700000413BC02130310589F480E491E09093F5
:1053800074058093730580EF90E090937605809389
:10539000750588EE90E08093004127C022303105EA
:1053A00089F480EF90E0909374058093730580E416
:1053B00091E0909376058093750588E890E080935E
:1053C000004113C02330310581F480E491E09093D3
:1053D00074058093730580EF90E090937605809339
:1053E000750588E290E0809300418AE290E0809326
:1053F000004020E030E03093004120930041809154
:10540000730590917405019790930041809300413A
:105410008BE290E080930040309300412093004164
:105420008091750590917605019790930041809346
:10543000004108951F93682F873718F010E066E742
:1054400011C0883010F468E00CC08D3310F010E00B
:1054500009C08F3110F011E005C0803110F012E06A
:1054600001C013E081EB90E0809300401093004175
:1054700070E0882777FD8095982F0E9440359B012A
:10548000AC0160E070E080EF94E40E9464340E941C
:10549000943170E002C0759567951A95E2F76093B4
:1054A00000411F9108950F931F93DF93CF93CDB7C2
:1054B000DEB728970FB6F894DEBF0FBECDBF2983A5
:1054C0003A834B835C836D837E838F839887698166
:1054D0007A812B813C81ED81FE814F8158858AE262
:1054E00090E08093004070930041609300413093BE
:1054F0000041209300418BE290E080930040F093C4
:105500000041E093004150930041409300418CE200
:1055100090E0809300402F5F3F4F261B370B4F5F7B
:105520005F4F4E1B5F0B24173507C8F4842F87701D
:1055300090E0829FB001839F700D929F700D1124A7
:10554000F3E056954795FA95E1F7842F90E0829F16
:10555000F001839FF00D929FF00D112418C0822F4F
:10556000877090E0849FB001859F700D949F700DAF
:105570001124E3E036952795EA95E1F7822F90E034
:10558000849FF001859FF00D949FF00D1124862FCC
:10559000877005C01093004100930041815088231B
:1055A000C9F7CB0123E0969587952A95E1F78E0FF1
:1055B0009F1F21C0109300410093004110930041B0
:1055C000009300411093004100930041109300416B
:1055D000009300411093004100930041109300415B
:1055E000009300411093004100930041109300414B
:1055F0000093004101970097E9F628960FB6F894BA
:10560000DEBF0FBECDBFCF91DF911F910F910895E7
:10561000EF92FF920F931F93DF93CF93CDB7DEB737
:1056200028970FB6F894DEBF0FBECDBF29833A830B
:105630004B835C836D837E838F83988729813A8136
:10564000AB81BC81ED80FE806F8178858AE290E03D
:10565000809300403093004120930041B09300417B
:10566000A09300418BE290E080930040F0920041D3
:10567000E092004170930041609300418CE290E021
:10568000809300400FC0F801819191918F01909318
:105690000041809300414F5F5F4F6417750798F793
:1056A0002F5F3F4FA217B30710F0A701F6CF289640
:1056B0000FB6F894DEBF0FBECDBFCF91DF911F9123
:1056C0000F91FF90EF9008952AE230E02093004080
:1056D000909300418093004190930041809300415A
:1056E0008BE290E080930040709300416093004112
:1056F00070930041609300418CE290E08093004001
:10570000509300414093004108952F923F924F9251
:105710005F926F927F928F929F92AF92BF92CF9241
:10572000DF92EF92FF920F931F93CF93DF93EC01E1
:10573000FB016A017901180180917305909174054C
:10574000C817D90710F0EC012197C816D90620F028
:105750006C010894C108D108809175059091760577
:10576000E817F90710F0FC013197E816F90620F068
:105770007C010894E108F108CC15DD0520F4560100
:10578000AC1ABD0A03C05E01AC18BD08EE15FF05DA
:1057900020F487010E1B1F0B03C08F010E191F0978
:1057A000CC15DD0520F066246A94762C03C081E0D8
:1057B000682E712CEE15FF0520F088248A94982C11
:1057C00003C0B1E08B2E912C0A151B053CF4C501DA
:1057D00062E070E00E947F38CB010CC0C80162E03B
:1057E00070E00E947F3888279927861B970B02C09C
:1057F000C9010BC0AAE24A2E512CABE2B0E06CE228
:1058000070E0442755274A195B0940920040D09325
:105810000041C0930041D0930041C0930041A09348
:105820000040F0930041E0930041F0930041E09389
:105830000041609300403092004120920041CC151D
:10584000DD0519F4EE15FF0591F04817590714F01E
:105850009C0105C09C01201B310BC60DD71D801774
:10586000910734F62A0D3B1DE80DF91DC1CFDF91DC
:10587000CF911F910F91FF90EF90DF90CF90BF904D
:10588000AF909F908F907F906F905F904F903F90E0
:105890002F9008952F923F924F925F926F927F9236
:1058A0008F929F92AF92BF92CF92DF92EF92FF9230
:1058B0000F931F93DF93CF9300D000D000D0CDB7CC
:1058C000DEB73C014B012A01790131E0232E312C56
:1058D0002E183F08C701880F991F22273327281B3E
:1058E000390B3A832983C701860F971FEAE2F0E05C
:1058F000E09300407092004160920041709200413C
:10590000609200416BE270E0609300409093004130
:105910008093004190930041809300412CE230E05D
:10592000209300405093004140930041C4018E19E0
:105930009F09E09300407092004160920041709294
:105940000041609200416093004090930041809339
:105950000041909300418093004120930040509378
:10596000004140930041A701460D571DE0930040C0
:1059700050930041409300415093004140930041B7
:1059800060930040909200418092004190920041CB
:10599000809200412093004050920041409200418B
:1059A000C3018E199F09E0930040909300418093BA
:1059B0000041909300418093004160930040909299
:1059C00000418092004190920041809200412093DA
:1059D00000405092004140920041B4019401820184
:1059E0000E94852B570181E090E09C838B831E826F
:1059F0001D8249C037FC0AC00894A108B108E9819A
:105A0000FA813296FA83E9832E0E3F1E2D813E8164
:105A10002F5F3F4F3E832D838B819C8102969C8319
:105A20008B83280E391E6301C21AD30A7901E60C52
:105A3000F71C9501280D391DC601B901A701820186
:105A40000E94852B94012A193B09C701B901A601BF
:105A50000E94852B7501E60CF71C6301CA18DB0850
:105A60002D813E81280D391DC701B901A6010E9473
:105A7000852B9401ED81FE812E1B3F0BC701B901DF
:105A8000A6010E94852B2D813E812A153B050CF431
:105A9000B1CF26960FB6F894DEBF0FBECDBFCF9123
:105AA000DF911F910F91FF90EF90DF90CF90BF900B
:105AB000AF909F908F907F906F905F904F903F90AE
:105AC0002F9008950F931F93DF93CF93CDB7DEB739
:105AD00028970FB6F894DEBF0FBECDBF10927A059F
